{
  "abi": [
    {
      "inputs": [],
      "stateMutability": "payable",
      "type": "constructor"
    },
    {
      "inputs": [
        {
          "internalType": "address",
          "name": "_secondAddress",
          "type": "address"
        }
      ],
      "name": "delegate",
      "outputs": [],
      "stateMutability": "nonpayable",
      "type": "function"
    },
    {
      "inputs": [],
      "name": "floratoken",
      "outputs": [
        {
          "internalType": "contract FloraToken",
          "name": "",
          "type": "address"
        }
      ],
      "stateMutability": "view",
      "type": "function"
    },
    {
      "inputs": [
        {
          "internalType": "address",
          "name": "_user",
          "type": "address"
        },
        {
          "internalType": "uint256",
          "name": "_amount",
          "type": "uint256"
        }
      ],
      "name": "mint",
      "outputs": [],
      "stateMutability": "nonpayable",
      "type": "function"
    },
    {
      "inputs": [
        {
          "internalType": "address",
          "name": "_user",
          "type": "address"
        }
      ],
      "name": "transferOwnership",
      "outputs": [],
      "stateMutability": "nonpayable",
      "type": "function"
    }
  ],
  "bytecode": {
    "object": "0x608060405234670de0b6b3a76400001461001857600080fd5b670de0b6b3a764000060405161002d90610070565b6040518091039082f090508015801561004a573d6000803e3d6000fd5b50600080546001600160a01b0319166001600160a01b039290921691909117905561007d565b611dbf8061030b83390190565b61027f8061008c6000396000f3fe608060405234801561001057600080fd5b506004361061004c5760003560e01c806340c10f19146100515780635c19a95c14610066578063823b32b714610079578063f2fde38b14610097575b600080fd5b61006461005f3660046101f3565b6100aa565b005b6100646100743660046101d2565b610112565b610081610177565b60405161008e919061021c565b60405180910390f35b6100646100a53660046101d2565b610186565b60005460405163da1919b360e01b81526001600160a01b039091169063da1919b3906100dc9085908590600401610230565b600060405180830381600087803b1580156100f657600080fd5b505af115801561010a573d6000803e3d6000fd5b505050505050565b6000546040516317066a5760e21b81526001600160a01b0390911690635c19a95c9061014290849060040161021c565b600060405180830381600087803b15801561015c57600080fd5b505af1158015610170573d6000803e3d6000fd5b5050505050565b6000546001600160a01b031681565b60005460405163f2fde38b60e01b81526001600160a01b039091169063f2fde38b9061014290849060040161021c565b80356001600160a01b03811681146101cd57600080fd5b919050565b6000602082840312156101e3578081fd5b6101ec826101b6565b9392505050565b60008060408385031215610205578081fd5b61020e836101b6565b946020939093013593505050565b6001600160a01b0391909116815260200190565b6001600160a01b0392909216825260208201526040019056fea26469706673582212204b019ebdb68230394895ac546b80271037f5896f555b391cf8cbc6322c02c03a64736f6c63430008000033600b60809081526a233637b930902a37b5b2b760a91b60a052610100604052600560c090815264464c4f524160d81b60e052620000456200003f6200008e565b62000092565b81516200005a906004906020850190620000e2565b50805162000070906005906020840190620000e2565b50505034670de0b6b3a7640000146200008857600080fd5b620001c5565b3390565b600080546001600160a01b038381166001600160a01b0319831681178455604051919092169283917f8be0079c531659141344cd1fd0a4f28419497f9722a3daafe3b4186f6b6457e09190a35050565b828054620000f09062000188565b90600052602060002090601f0160209004810192826200011457600085556200015f565b82601f106200012f57805160ff19168380011785556200015f565b828001600101855582156200015f579182015b828111156200015f57825182559160200191906001019062000142565b506200016d92915062000171565b5090565b5b808211156200016d576000815560010162000172565b6002810460018216806200019d57607f821691505b60208210811415620001bf57634e487b7160e01b600052602260045260246000fd5b50919050565b611bea80620001d56000396000f3fe608060405234801561001057600080fd5b50600436106101c45760003560e01c80637ecebe00116100f9578063c3cda52011610097578063dd62ed3e11610071578063dd62ed3e14610392578063e7a324dc146103a5578063f1127ed8146103ad578063f2fde38b146103ce576101c4565b8063c3cda52014610364578063d5abeb0114610377578063da1919b31461037f576101c4565b8063a0712d68116100d3578063a0712d6814610318578063a457c2d71461032b578063a9059cbb1461033e578063b4b5ea5714610351576101c4565b80637ecebe00146102f55780638da5cb5b1461030857806395d89b4114610310576101c4565b806339509351116101665780636fcfff45116101405780636fcfff45146102a757806370a08231146102c7578063715018a6146102da578063782d6fe1146102e2576101c4565b8063395093511461025f578063587cde1e146102725780635c19a95c14610292576101c4565b806320606b70116101a257806320606b701461021c57806323b872dd146102245780632b99174614610237578063313ce5671461024a576101c4565b806306fdde03146101c9578063095ea7b3146101e757806318160ddd14610207575b600080fd5b6101d16103e1565b6040516101de919061160d565b60405180910390f35b6101fa6101f5366004611487565b610473565b6040516101de9190611593565b61020f610497565b6040516101de919061159e565b61020f61049d565b6101fa61023236600461144c565b6104c1565b6101fa61024536600461144c565b6104ef565b610252610563565b6040516101de9190611a5a565b6101fa61026d366004611487565b610568565b610285610280366004611400565b610594565b6040516101de919061157f565b6102a56102a0366004611400565b6105b5565b005b6102ba6102b5366004611400565b6105c2565b6040516101de9190611a33565b61020f6102d5366004611400565b6105da565b6102a56105f5565b61020f6102f0366004611487565b610609565b61020f610303366004611400565b61082e565b610285610840565b6101d161084f565b6101fa61032636600461154c565b61085e565b6101fa610339366004611487565b6108b4565b6101fa61034c366004611487565b6108fc565b61020f61035f366004611400565b610914565b6102a56103723660046114b0565b610989565b61020f610b64565b6102a561038d366004611487565b610b74565b61020f6103a036600461141a565b610be2565b61020f610c0d565b6103c06103bb36600461150e565b610c31565b6040516101de929190611a44565b6102a56103dc366004611400565b610c5e565b6060600480546103f090611b13565b80601f016020809104026020016040519081016040528092919081815260200182805461041c90611b13565b80156104695780601f1061043e57610100808354040283529160200191610469565b820191906000526020600020905b81548152906001019060200180831161044c57829003601f168201915b5050505050905090565b60008061047e610cde565b905061048b818585610ce2565b60019150505b92915050565b60035490565b7f8cad95687ba82c2ce50e74f7b754645e5117c3a5bec8151c0726d5857980a86681565b6000806104cc610cde565b90506104d9858285610d96565b6104e4858585610dda565b506001949350505050565b60006104f9610edb565b6001600160a01b0384166105285760405162461bcd60e51b815260040161051f90611758565b60405180910390fd5b6001600160a01b03831661054e5760405162461bcd60e51b815260040161051f90611758565b610559848484610ce2565b5060019392505050565b601290565b600080610573610cde565b905061048b8185856105858589610be2565b61058f9190611a68565b610ce2565b6001600160a01b03808216600090815260066020526040902054165b919050565b6105bf3382610f1a565b50565b60096020526000908152604090205463ffffffff1681565b6001600160a01b031660009081526001602052604090205490565b6105fd610edb565b6106076000610fa9565b565b600043821061062a5760405162461bcd60e51b815260040161051f906116e6565b6001600160a01b03831660009081526009602052604090205463ffffffff1680610658576000915050610491565b6001600160a01b0384166000908152600860205260408120849161067d600185611aee565b63ffffffff908116825260208201929092526040016000205416116106e6576001600160a01b0384166000908152600860205260408120906106c0600184611aee565b63ffffffff1663ffffffff16815260200190815260200160002060010154915050610491565b6001600160a01b038416600090815260086020908152604080832083805290915290205463ffffffff16831015610721576000915050610491565b60008061072f600184611aee565b90505b8163ffffffff168163ffffffff1611156107f757600060026107548484611aee565b61075e9190611aa8565b6107689083611aee565b6001600160a01b038816600090815260086020908152604080832063ffffffff80861685529083529281902081518083019092528054909316808252600190930154918101919091529192508714156107cb576020015194506104919350505050565b805163ffffffff168711156107e2578193506107f0565b6107ed600183611aee565b92505b5050610732565b506001600160a01b038516600090815260086020908152604080832063ffffffff9094168352929052206001015491505092915050565b60076020526000908152604090205481565b6000546001600160a01b031690565b6060600580546103f090611b13565b6000610868610edb565b610879610873610cde565b83610ff9565b6b033b2e3c9fd0803ce800000061088e610497565b11156108ac5760405162461bcd60e51b815260040161051f9061172e565b506001919050565b6000806108bf610cde565b905060006108cd8286610be2565b9050838110156108ef5760405162461bcd60e51b815260040161051f90611962565b6104e48286868403610ce2565b600080610907610cde565b905061048b818585610dda565b6001600160a01b03811660009081526009602052604081205463ffffffff168061093f576000610982565b6001600160a01b038316600090815260086020526040812090610963600184611aee565b63ffffffff1663ffffffff168152602001908152602001600020600101545b9392505050565b60007f8cad95687ba82c2ce50e74f7b754645e5117c3a5bec8151c0726d5857980a8666109b46103e1565b805190602001206109c36110a3565b306040516020016109d794939291906115cb565b60405160208183030381529060405280519060200120905060007fe48329057bfd03d55e49b547132e39cffd9c1820ad7b9d4c5307691425d15adf888888604051602001610a2894939291906115a7565b60405160208183030381529060405280519060200120905060008282604051602001610a55929190611564565b604051602081830303815290604052805190602001209050600060018288888860405160008152602001604052604051610a9294939291906115ef565b6020604051602081039080840390855afa158015610ab4573d6000803e3d6000fd5b5050604051601f1901519150506001600160a01b038116610ae75760405162461bcd60e51b815260040161051f906119a7565b6001600160a01b0381166000908152600760205260408120805491610b0b83611b4e565b919050558914610b2d5760405162461bcd60e51b815260040161051f906116a3565b87421115610b4d5760405162461bcd60e51b815260040161051f90611892565b610b57818b610f1a565b505050505b505050505050565b6b033b2e3c9fd0803ce800000081565b610b7c610edb565b610b868282610ff9565b6b033b2e3c9fd0803ce8000000610b9b610497565b1115610bb95760405162461bcd60e51b815260040161051f9061172e565b6001600160a01b03808316600090815260066020526040812054610bde9216836110a8565b5050565b6001600160a01b03918216600090815260026020908152604080832093909416825291909152205490565b7fe48329057bfd03d55e49b547132e39cffd9c1820ad7b9d4c5307691425d15adf81565b60086020908152600092835260408084209091529082529020805460019091015463ffffffff9091169082565b6001600160a01b038116610c845760405162461bcd60e51b815260040161051f90611758565b6000610c8e610840565b6001600160a01b0380841660009081526009602052604080822054928416825290205491925063ffffffff9081169116808211156101c457610ccf84610fa9565b610cd88461120c565b50505050565b3390565b6001600160a01b038316610d085760405162461bcd60e51b815260040161051f9061191e565b6001600160a01b038216610d2e5760405162461bcd60e51b815260040161051f9061179e565b6001600160a01b0380841660008181526002602090815260408083209487168084529490915290819020849055517f8c5be1e5ebec7d5bd14f71427d1e84f3dd0314c0f7b2291e5b200ac8c7c3b92590610d8990859061159e565b60405180910390a3505050565b6000610da28484610be2565b90506000198114610cd85781811015610dcd5760405162461bcd60e51b815260040161051f906117e0565b610cd88484848403610ce2565b6001600160a01b038316610e005760405162461bcd60e51b815260040161051f906118d9565b6001600160a01b038216610e265760405162461bcd60e51b815260040161051f90611660565b610e31838383611207565b6001600160a01b03831660009081526001602052604090205481811015610e6a5760405162461bcd60e51b815260040161051f90611817565b6001600160a01b0380851660008181526001602052604080822086860390559286168082529083902080548601905591517fddf252ad1be2c89b69c2b068fc378daa952ba7f163c4a11628f55a4df523b3ef90610ec890869061159e565b60405180910390a3610cd8848484611207565b610ee3610cde565b6001600160a01b0316610ef4610840565b6001600160a01b0316146106075760405162461bcd60e51b815260040161051f9061185d565b6001600160a01b0380831660009081526006602052604081205490911690610f41846105da565b6001600160a01b0385811660008181526006602052604080822080546001600160a01b031916898616908117909155905194955093928616927f3134e8a2e6d97e929a7e54011ea5485d7d196dd5f0ba4d4ef95803e8e3fc257f9190a4610cd88284836110a8565b600080546001600160a01b038381166001600160a01b0319831681178455604051919092169283917f8be0079c531659141344cd1fd0a4f28419497f9722a3daafe3b4186f6b6457e09190a35050565b6001600160a01b03821661101f5760405162461bcd60e51b815260040161051f906119ee565b61102b60008383611207565b806003600082825461103d9190611a68565b90915550506001600160a01b038216600081815260016020526040808220805485019055517fddf252ad1be2c89b69c2b068fc378daa952ba7f163c4a11628f55a4df523b3ef9061108f90859061159e565b60405180910390a3610bde60008383611207565b600590565b816001600160a01b0316836001600160a01b0316141580156110ca5750600081115b15611207576001600160a01b0383161561116d576001600160a01b03831660009081526009602052604081205463ffffffff16908161110a57600061114d565b6001600160a01b03851660009081526008602052604081209061112e600185611aee565b63ffffffff1663ffffffff168152602001908152602001600020600101545b9050600061115b8483611ad7565b905061116986848484611218565b5050505b6001600160a01b03821615611207576001600160a01b03821660009081526009602052604081205463ffffffff1690816111a85760006111eb565b6001600160a01b0384166000908152600860205260408120906111cc600185611aee565b63ffffffff1663ffffffff168152602001908152602001600020600101545b905060006111f98483611a68565b9050610b5c85848484611218565b505050565b806001600160a01b0316ff5b600061123c43604051806060016040528060358152602001611b80603591396113b9565b905060008463ffffffff1611801561129657506001600160a01b038516600090815260086020526040812063ffffffff83169161127a600188611aee565b63ffffffff908116825260208201929092526040016000205416145b156112df576001600160a01b038516600090815260086020526040812083916112c0600188611aee565b63ffffffff16815260208101919091526040016000206001015561136f565b60408051808201825263ffffffff838116825260208083018681526001600160a01b038a166000908152600883528581208a851682529092529390209151825463ffffffff19169116178155905160019182015561133e908590611a80565b6001600160a01b0386166000908152600960205260409020805463ffffffff191663ffffffff929092169190911790555b846001600160a01b03167fdec2bacdd2f05b59de34da9b523dff8be42e5e38e818c82fdb0bae774387a72484846040516113aa929190611a25565b60405180910390a25050505050565b60008164010000000084106113e15760405162461bcd60e51b815260040161051f919061160d565b509192915050565b80356001600160a01b03811681146105b057600080fd5b600060208284031215611411578081fd5b610982826113e9565b6000806040838503121561142c578081fd5b611435836113e9565b9150611443602084016113e9565b90509250929050565b600080600060608486031215611460578081fd5b611469846113e9565b9250611477602085016113e9565b9150604084013590509250925092565b60008060408385031215611499578182fd5b6114a2836113e9565b946020939093013593505050565b60008060008060008060c087890312156114c8578182fd5b6114d1876113e9565b95506020870135945060408701359350606087013560ff811681146114f4578283fd5b9598949750929560808101359460a0909101359350915050565b60008060408385031215611520578182fd5b611529836113e9565b9150602083013563ffffffff81168114611541578182fd5b809150509250929050565b60006020828403121561155d578081fd5b5035919050565b61190160f01b81526002810192909252602282015260420190565b6001600160a01b0391909116815260200190565b901515815260200190565b90815260200190565b9384526001600160a01b039290921660208401526040830152606082015260800190565b938452602084019290925260408301526001600160a01b0316606082015260800190565b93845260ff9290921660208401526040830152606082015260800190565b6000602080835283518082850152825b818110156116395785810183015185820160400152820161161d565b8181111561164a5783604083870101525b50601f01601f1916929092016040019392505050565b60208082526023908201527f45524332303a207472616e7366657220746f20746865207a65726f206164647260408201526265737360e81b606082015260800190565b60208082526023908201527f464c4f52413a3a64656c656761746542795369673a20696e76616c6964206e6f6040820152626e636560e81b606082015260800190565b60208082526028908201527f464c4f52413a3a6765745072696f72566f7465733a206e6f74207965742064656040820152671d195c9b5a5b995960c21b606082015260800190565b60208082526010908201526f7265616368206d617820737570706c7960801b604082015260600190565b60208082526026908201527f4f776e61626c653a206e6577206f776e657220697320746865207a65726f206160408201526564647265737360d01b606082015260800190565b60208082526022908201527f45524332303a20617070726f766520746f20746865207a65726f206164647265604082015261737360f01b606082015260800190565b6020808252601d908201527f45524332303a20696e73756666696369656e7420616c6c6f77616e6365000000604082015260600190565b60208082526026908201527f45524332303a207472616e7366657220616d6f756e7420657863656564732062604082015265616c616e636560d01b606082015260800190565b6020808252818101527f4f776e61626c653a2063616c6c6572206973206e6f7420746865206f776e6572604082015260600190565b60208082526027908201527f464c4f52413a3a64656c656761746542795369673a207369676e617475726520604082015266195e1c1a5c995960ca1b606082015260800190565b60208082526025908201527f45524332303a207472616e736665722066726f6d20746865207a65726f206164604082015264647265737360d81b606082015260800190565b60208082526024908201527f45524332303a20617070726f76652066726f6d20746865207a65726f206164646040820152637265737360e01b606082015260800190565b60208082526025908201527f45524332303a2064656372656173656420616c6c6f77616e63652062656c6f77604082015264207a65726f60d81b606082015260800190565b60208082526027908201527f464c4f52413a3a64656c656761746542795369673a20696e76616c6964207369604082015266676e617475726560c81b606082015260800190565b6020808252601f908201527f45524332303a206d696e7420746f20746865207a65726f206164647265737300604082015260600190565b918252602082015260400190565b63ffffffff91909116815260200190565b63ffffffff929092168252602082015260400190565b60ff91909116815260200190565b60008219821115611a7b57611a7b611b69565b500190565b600063ffffffff808316818516808303821115611a9f57611a9f611b69565b01949350505050565b600063ffffffff80841680611acb57634e487b7160e01b83526012600452602483fd5b92169190910492915050565b600082821015611ae957611ae9611b69565b500390565b600063ffffffff83811690831681811015611b0b57611b0b611b69565b039392505050565b600281046001821680611b2757607f821691505b60208210811415611b4857634e487b7160e01b600052602260045260246000fd5b50919050565b6000600019821415611b6257611b62611b69565b5060010190565b634e487b7160e01b600052601160045260246000fdfe464c4f52413a3a5f7772697465436865636b706f696e743a20626c6f636b206e756d62657220657863656564732033322062697473a2646970667358221220ce5365fe9e1c914b0ede72c751f4e9eec0a1ae05a5281244b4b4ebe5aa2b0f2b64736f6c63430008000033",
    "linkReferences": {}
  },
  "methodIdentifiers": {
    "delegate(address)": "5c19a95c",
    "floratoken()": "823b32b7",
    "mint(address,uint256)": "40c10f19",
    "transferOwnership(address)": "f2fde38b"
  },
  "id": 9
}